{
  "_format": "hh-sol-artifact-1",
  "contractName": "Upload",
  "sourceName": "contracts/Upload.sol",
  "abi": [
    {
      "anonymous": false,
      "inputs": [
        {
          "indexed": true,
          "internalType": "address",
          "name": "user",
          "type": "address"
        },
        {
          "indexed": false,
          "internalType": "string",
          "name": "prompt",
          "type": "string"
        },
        {
          "indexed": false,
          "internalType": "string",
          "name": "photo",
          "type": "string"
        }
      ],
      "name": "ImageAdded",
      "type": "event"
    },
    {
      "anonymous": false,
      "inputs": [
        {
          "indexed": true,
          "internalType": "address",
          "name": "user",
          "type": "address"
        },
        {
          "indexed": false,
          "internalType": "string",
          "name": "form",
          "type": "string"
        }
      ],
      "name": "ImageShared",
      "type": "event"
    },
    {
      "inputs": [
        {
          "internalType": "string",
          "name": "prompt",
          "type": "string"
        },
        {
          "internalType": "string",
          "name": "photo",
          "type": "string"
        }
      ],
      "name": "add",
      "outputs": [],
      "stateMutability": "nonpayable",
      "type": "function"
    },
    {
      "inputs": [
        {
          "internalType": "uint256",
          "name": "",
          "type": "uint256"
        }
      ],
      "name": "images",
      "outputs": [
        {
          "internalType": "address",
          "name": "uploader",
          "type": "address"
        },
        {
          "internalType": "string",
          "name": "prompt",
          "type": "string"
        },
        {
          "internalType": "string",
          "name": "photo",
          "type": "string"
        }
      ],
      "stateMutability": "view",
      "type": "function"
    },
    {
      "inputs": [
        {
          "internalType": "string",
          "name": "form",
          "type": "string"
        }
      ],
      "name": "share",
      "outputs": [],
      "stateMutability": "nonpayable",
      "type": "function"
    }
  ],
  "bytecode": "0x608060405234801561001057600080fd5b50610a80806100206000396000f3fe608060405234801561001057600080fd5b50600436106100415760003560e01c80637f630b4c146100465780638485648214610062578063ebdf86ca14610094575b600080fd5b610060600480360381019061005b91906104ea565b6100b0565b005b61007c60048036038101906100779190610569565b610101565b60405161008b93929190610656565b60405180910390f35b6100ae60048036038101906100a9919061069b565b61026b565b005b3373ffffffffffffffffffffffffffffffffffffffff167f0ed2dbe9c01c4aca75be7e92339eeb96d83b008a061f74af6bcb0d91af60ff6d826040516100f69190610713565b60405180910390a250565b6000818154811061011157600080fd5b90600052602060002090600302016000915090508060000160009054906101000a900473ffffffffffffffffffffffffffffffffffffffff169080600101805461015a90610764565b80601f016020809104026020016040519081016040528092919081815260200182805461018690610764565b80156101d35780601f106101a8576101008083540402835291602001916101d3565b820191906000526020600020905b8154815290600101906020018083116101b657829003601f168201915b5050505050908060020180546101e890610764565b80601f016020809104026020016040519081016040528092919081815260200182805461021490610764565b80156102615780601f1061023657610100808354040283529160200191610261565b820191906000526020600020905b81548152906001019060200180831161024457829003601f168201915b5050505050905083565b600060405180606001604052803373ffffffffffffffffffffffffffffffffffffffff16815260200184815260200183815250908060018154018082558091505060019003906000526020600020906003020160009091909190915060008201518160000160006101000a81548173ffffffffffffffffffffffffffffffffffffffff021916908373ffffffffffffffffffffffffffffffffffffffff16021790555060208201518160010190816103239190610941565b5060408201518160020190816103399190610941565b5050503373ffffffffffffffffffffffffffffffffffffffff167f81d08f94c2c20e2c05777273300664d42af5cb55fd9c7b2c0d0516de8201664d8383604051610384929190610a13565b60405180910390a25050565b6000604051905090565b600080fd5b600080fd5b600080fd5b600080fd5b6000601f19601f8301169050919050565b7f4e487b7100000000000000000000000000000000000000000000000000000000600052604160045260246000fd5b6103f7826103ae565b810181811067ffffffffffffffff82111715610416576104156103bf565b5b80604052505050565b6000610429610390565b905061043582826103ee565b919050565b600067ffffffffffffffff821115610455576104546103bf565b5b61045e826103ae565b9050602081019050919050565b82818337600083830152505050565b600061048d6104888461043a565b61041f565b9050828152602081018484840111156104a9576104a86103a9565b5b6104b484828561046b565b509392505050565b600082601f8301126104d1576104d06103a4565b5b81356104e184826020860161047a565b91505092915050565b600060208284031215610500576104ff61039a565b5b600082013567ffffffffffffffff81111561051e5761051d61039f565b5b61052a848285016104bc565b91505092915050565b6000819050919050565b61054681610533565b811461055157600080fd5b50565b6000813590506105638161053d565b92915050565b60006020828403121561057f5761057e61039a565b5b600061058d84828501610554565b91505092915050565b600073ffffffffffffffffffffffffffffffffffffffff82169050919050565b60006105c182610596565b9050919050565b6105d1816105b6565b82525050565b600081519050919050565b600082825260208201905092915050565b60005b838110156106115780820151818401526020810190506105f6565b60008484015250505050565b6000610628826105d7565b61063281856105e2565b93506106428185602086016105f3565b61064b816103ae565b840191505092915050565b600060608201905061066b60008301866105c8565b818103602083015261067d818561061d565b90508181036040830152610691818461061d565b9050949350505050565b600080604083850312156106b2576106b161039a565b5b600083013567ffffffffffffffff8111156106d0576106cf61039f565b5b6106dc858286016104bc565b925050602083013567ffffffffffffffff8111156106fd576106fc61039f565b5b610709858286016104bc565b9150509250929050565b6000602082019050818103600083015261072d818461061d565b905092915050565b7f4e487b7100000000000000000000000000000000000000000000000000000000600052602260045260246000fd5b6000600282049050600182168061077c57607f821691505b60208210810361078f5761078e610735565b5b50919050565b60008190508160005260206000209050919050565b60006020601f8301049050919050565b600082821b905092915050565b6000600883026107f77fffffffffffffffffffffffffffffffffffffffffffffffffffffffffffffffff826107ba565b61080186836107ba565b95508019841693508086168417925050509392505050565b6000819050919050565b600061083e61083961083484610533565b610819565b610533565b9050919050565b6000819050919050565b61085883610823565b61086c61086482610845565b8484546107c7565b825550505050565b600090565b610881610874565b61088c81848461084f565b505050565b5b818110156108b0576108a5600082610879565b600181019050610892565b5050565b601f8211156108f5576108c681610795565b6108cf846107aa565b810160208510156108de578190505b6108f26108ea856107aa565b830182610891565b50505b505050565b600082821c905092915050565b6000610918600019846008026108fa565b1980831691505092915050565b60006109318383610907565b9150826002028217905092915050565b61094a826105d7565b67ffffffffffffffff811115610963576109626103bf565b5b61096d8254610764565b6109788282856108b4565b600060209050601f8311600181146109ab5760008415610999578287015190505b6109a38582610925565b865550610a0b565b601f1984166109b986610795565b60005b828110156109e1578489015182556001820191506020850194506020810190506109bc565b868310156109fe57848901516109fa601f891682610907565b8355505b6001600288020188555050505b505050505050565b60006040820190508181036000830152610a2d818561061d565b90508181036020830152610a41818461061d565b9050939250505056fea264697066735822122013617c22c984ae8960f951cc4f06b203c76ebc3f07cd42db75394f6202026d4464736f6c63430008110033",
  "linkReferences": {},
  "deployedLinkReferences": {}
}